:020000040000FA
:040000008FEF11F07D
:10060000003F065B4F666D7D077F6F777C395E79B3
:100610007100554C44525358414259734156454E0E
:10062000494441202020004156454E494441202064
:100630000042522D3034302020004D472D333031D0
:100640002020005255412058562020002D52616430
:1006500061722D20004C3A2031303020004C3A207D
:1006600031313020004C3A20363020004C3A2038CE
:100670003020004C3A20313030004C3A20313130BB
:10068000004C3A20303630004C3A2030383000569A
:030690003A00002D
:10069400EBEC10F03E6E3E50D8B453EF03F055EF40
:1006A40003F08CEF04F06FEF04F0800E73EC11F0A4
:1006B400430E0F6E060E106EBFEC0FF0C00E73ECFF
:1006C40011F0810E0F6E060E106EBFEC0FF03C0E93
:1006D400326E000E336E000E346E000E356E46C060
:1006E40001F047C002F048C003F049C004F00A0E0C
:1006F400056E000E066E000E076E000E086ED4EC3A
:100704000EF001C00DF002C00EF003C00FF004C0E3
:1007140010F0640E116E000E126E000E136E000EB9
:10072400146E7AEC0DF0640E0D24366E000E0E205D
:10073400376E8CEF04F0800E73EC11F0270E0F6E01
:10074400060E106EBFEC0FF0C00E73EC11F0880EA5
:100754000F6E060E106EBFEC0FF0500E326E000ED0
:10076400336E000E346E000E356E46C001F047C085
:1007740002F048C003F049C004F0140E056E000EE8
:10078400066E000E076E000E086ED4EC0EF001C06B
:100794000DF002C00EF003C00FF004C010F0640EA0
:1007A400116E000E126E000E136E000E146E7AECB3
:1007B4000DF0C80E0D24366E000E0E20376E8CEF31
:1007C40004F0800E73EC11F0310E0F6E060E106EF5
:1007D400BFEC0FF0C00E73EC11F0730E0F6E060E2B
:1007E400106EBFEC0FF0640E326E000E336E000E0E
:1007F400346E000E356E46C001F047C002F048C0AA
:1008040003F049C004F01E0E056E000E066E000EC5
:10081400076E000E086ED4EC0EF001C00DF002C09D
:100824000EF003C00FF004C010F0640E116E000E41
:10083400126E000E136E000E146E7AEC0DF02C0E78
:100844000D24366E010E0E20376E8CEF04F0800EF0
:1008540073EC11F03A0E0F6E060E106EBFEC0FF033
:10086400C00E73EC11F07A0E0F6E060E106EBFEC14
:100874000FF06E0E326E000E336E000E346E000EEC
:10088400356E46C001F047C002F048C003F049C0CD
:1008940004F0280E056E000E066E000E076E000EA4
:1008A400086ED4EC0EF001C00DF002C00EF003C0CF
:1008B4000FF004C010F0640E116E000E126E000EE4
:1008C400136E000E146E7AEC0DF0900E0D24366E3D
:1008D400010E0E20376E8CEF04F03E50236E246A16
:1008E4002450000AD8B479EF04F08CEF04F02350BC
:1008F400440AD8B4E3EF03F0080AD8B49DEF03F038
:100904001E0AD8B429EF04F0070AD8B457EF03F04D
:100914008CEF04F0000E026E000E016EEAEC0FF094
:1009240001C046F002C047F0000E47BEFF0E486EFD
:10093400496E560E9AEC11F03A0E9AEC11F0200E14
:100944009AEC11F0FF0E116E030E126E000E136E70
:10095400000E146E46C001F047C002F048C003F018
:1009640049C004F0C80E056E000E066E000E076E38
:10097400000E086ED4EC0EF001C00DF002C00EF0B3
:1009840003C00FF004C010F07AEC0DF0140E0D2427
:10099400256E000E0E20266E000E0F20276E000E10
:1009A4001020286E640E116E000E126E000E136E6F
:1009B400000E146E25C00DF026C00EF027C00FF0F7
:1009C40028C010F07AEC0DF00DC01AF00EC01BF028
:1009D4000FC01CF010C01DF00A0E1E6E000E1F6E1C
:1009E400000E206E000E216E1AEC0EF01A50300F1D
:1009F4009AEC11F0FF0E116E030E126E000E136EC0
:100A0400000E146E46C001F047C002F048C003F067
:100A140049C004F0C80E056E000E066E000E076E87
:100A2400000E086ED4EC0EF001C00DF002C00EF002
:100A340003C00FF004C010F07AEC0DF0140E0D2476
:100A4400256E000E0E20266E000E0F20276E000E5F
:100A54001020286E0A0E116E000E126E000E136E18
:100A6400000E146E25C00DF026C00EF027C00FF046
:100A740028C010F07AEC0DF00DC01AF00EC01BF077
:100A84000FC01CF010C01DF00A0E1E6E000E1F6E6B
:100A9400000E206E000E216E1AEC0EF01A50300F6C
:100AA4009AEC11F0FF0E116E030E126E000E136E0F
:100AB400000E146E46C001F047C002F048C003F0B7
:100AC40049C004F0C80E056E000E066E000E076ED7
:100AD400000E086ED4EC0EF001C00DF002C00EF052
:100AE40003C00FF004C010F07AEC0DF0140E0D24C6
:100AF4001A6E000E0E201B6E000E0F201C6E000ED0
:100B040010201D6E0A0E1E6E000E1F6E000E206E4B
:100B1400000E216E1AEC0EF01A50300F9AEC11F000
:100B24000A0E9AEC11F01200BDEC0BF01C501A6E78
:100B34001B6AADEC11F01A50011809E11B500218A0
:100B4400D8B4A7EF05F0A9EF05F0E3EF06F0ADEC9C
:100B540011F0C5EF06F0800E73EC11F0430E0F6E2A
:100B6400060E106EBFEC0FF0C00E73EC11F0650EA4
:100B74000F6E060E106EBFEC0FF03C0E326E000EC0
:100B8400336E000E346E000E356E46C001F047C061
:100B940002F048C003F049C004F00A0E056E000ECE
:100BA400066E000E076E000E086ED4EC0EF001C047
:100BB4000DF002C00EF003C00FF004C010F0640E7C
:100BC400116E000E126E000E136E000E146E7AEC8F
:100BD4000DF0640E0D24366E000E0E20376EE3EF1A
:100BE40006F0800E73EC11F01C0E0F6E060E106EE4
:100BF400BFEC0FF0C00E73EC11F06C0E0F6E060E0E
:100C0400106EBFEC0FF0500E326E000E336E000EFD
:100C1400346E000E356E46C001F047C002F048C085
:100C240003F049C004F0140E056E000E066E000EAB
:100C3400076E000E086ED4EC0EF001C00DF002C079
:100C44000EF003C00FF004C010F0640E116E000E1D
:100C5400126E000E136E000E146E7AEC0DF0C80EB8
:100C64000D24366E000E0E20376EE3EF06F0800E74
:100C740073EC11F0310E0F6E060E106EBFEC0FF018
:100C8400C00E73EC11F0550E0F6E060E106EBFEC15
:100C94000FF0640E326E000E336E000E346E000ED2
:100CA400356E46C001F047C002F048C003F049C0A9
:100CB40004F01E0E056E000E066E000E076E000E8A
:100CC400086ED4EC0EF001C00DF002C00EF003C0AB
:100CD4000FF004C010F0640E116E000E126E000EC0
:100CE400136E000E146E7AEC0DF02C0E0D24366E7D
:100CF400010E0E20376EE3EF06F0800E73EC11F058
:100D04003A0E0F6E060E106EBFEC0FF0C00E73ECB1
:100D140011F05D0E0F6E060E106EBFEC0FF06E0E2E
:100D2400326E000E336E000E346E000E356E46C009
:100D340001F047C002F048C003F049C004F0280E97
:100D4400056E000E066E000E076E000E086ED4ECE3
:100D54000EF001C00DF002C00EF003C00FF004C08D
:100D640010F0640E116E000E126E000E136E000E63
:100D7400146E7AEC0DF0900E0D24366E010E0E20DA
:100D8400376EE3EF06F05EEC0EF01A6E1B6A1B5032
:100D9400000AD8B4D0EF06F0E3EF06F01A50440A84
:100DA400D8B439EF06F0080AD8B4F3EF05F01E0AF8
:100DB400D8B47FEF06F0070AD8B4ADEF05F0E3EF3F
:100DC40006F0120002BEF2EF06F0025007E1080E30
:100DD400015CD8B0F0EF06F0F2EF06F01CEF07F07C
:100DE40003500410D8B4F9EF06F0FBEF06F00BEF54
:100DF40007F001C005F0010E066E052A04EF07F0A6
:100E0400D8900636052E02EF07F0065080120AEF3E
:100E140008F001C005F0010E066E052A14EF07F074
:100E2400D8900636052E12EF07F00650FF0A8016FA
:100E34000AEF08F002BE2AEF07F0025007E1100E95
:100E4400015CD8B028EF07F02AEF07F058EF07F05D
:100E5400F80E0126FF0E022203500410D8B435EF19
:100E640007F037EF07F047EF07F001C005F0010E78
:100E7400066E052A40EF07F0D8900636052E3EEFA1
:100E840007F0065081120AEF08F001C005F0010EC8
:100E9400066E052A50EF07F0D8900636052E4EEF61
:100EA40007F00650FF0A81160AEF08F002BE66EF4B
:100EB40007F0025007E1180E015CD8B064EF07F0A8
:100EC40066EF07F094EF07F0F00E0126FF0E022202
:100ED40003500410D8B471EF07F073EF07F083EFF9
:100EE40007F001C005F0010E066E052A7CEF07F03D
:100EF400D8900636052E7AEF07F0065082120AEFD4
:100F040008F001C005F0010E066E052A8CEF07F00B
:100F1400D8900636052E8AEF07F00650FF0A82168F
:100F24000AEF08F002BEA2EF07F0025007E1200E1C
:100F3400015CD8B0A0EF07F0A2EF07F0D0EF07F004
:100F4400E80E0126FF0E022203500410D8B4ADEFC0
:100F540007F0AFEF07F0BFEF07F001C005F0010E97
:100F6400066E052AB8EF07F0D8900636052EB6EFC0
:100F740007F0065083120AEF08F001C005F0010ED5
:100F8400066E052AC8EF07F0D8900636052EC6EF80
:100F940007F00650FF0A83160AEF08F002BEDEEFE0
:100FA40007F0025007E1280E015CD8B0DCEF07F02F
:100FB400DEEF07F00AEF08F0E00E0126FF0E022232
:100FC40003500410D8B4E9EF07F0EBEF07F0FBEFA0
:100FD40007F001C005F0010E066E052AF4EF07F0D4
:100FE400D8900636052EF2EF07F0065084120AEF69
:100FF40008F001C005F0010E066E052A04EF08F0A2
:10100400D8900636052E02EF08F00650FF0A841623
:10101400120002BE19EF08F0025007E1080E015C4D
:10102400D8B017EF08F019EF08F043EF08F00350B9
:101034000410D8B420EF08F022EF08F032EF08F0E3
:1010440001C005F0010E066E052A2BEF08F0D890BA
:101054000636052E29EF08F00650921231EF09F0FA
:1010640001C005F0010E066E052A3BEF08F0D8908A
:101074000636052E39EF08F00650FF0A921631EFB6
:1010840009F002BE51EF08F0025007E1100E015CB6
:10109400D8B04FEF08F051EF08F07FEF08F003509D
:1010A4000410D8B458EF08F05AEF08F06CEF08F0C9
:1010B40001C005F0F80E0526010E066E052A65EF3F
:1010C40008F0D8900636052E63EF08F00650931208
:1010D40031EF09F001C005F0F80E0526010E066E89
:1010E400052A77EF08F0D8900636052E75EF08F03C
:1010F4000650FF0A931631EF09F002BE8DEF08F097
:10110400025007E1180E015CD8B08BEF08F08DEFA8
:1011140008F0BBEF08F003500410D8B494EF08F0C3
:1011240096EF08F0A8EF08F001C005F0F00E0526D0
:10113400010E066E052AA1EF08F0D8900636052E9A
:101144009FEF08F00650941231EF09F001C005F04A
:10115400F00E0526010E066E052AB3EF08F0D890AE
:101164000636052EB1EF08F00650FF0A941631EF4B
:1011740009F002BEC9EF08F0025007E1200E015C3D
:10118400D8B0C7EF08F0C9EF08F0F7EF08F0035044
:101194000410D8B4D0EF08F0D2EF08F0E4EF08F070
:1011A40001C005F0E80E0526010E066E052ADDEFE6
:1011B40008F0D8900636052EDBEF08F0065095129D
:1011C40031EF09F001C005F0E80E0526010E066EA8
:1011D400052AEFEF08F0D8900636052EEDEF08F05B
:1011E4000650FF0A951631EF09F002BE05EF09F02B
:1011F400025007E1280E015CD8B003EF09F005EFB7
:1012040009F031EF09F003500410D8B40CEF09F0E1
:101214000EEF09F020EF09F001C005F0E00E0526FD
:10122400010E066E052A19EF09F0D8900636052E30
:1012340017EF09F00650961231EF09F001C005F0DE
:10124400E00E0526010E066E052A2BEF09F0D89054
:101254000636052E29EF09F00650FF0A96161200ED
:10126400000E026E000E016EEAEC0FF001C046F0B3
:1012740002C047F0000E47BEFF0E486E496E46504E
:1012840023180FE1475024180CE14850251809E1B0
:1012940049502618D8B451EF09F053EF09F051EF33
:1012A4000AF0000E106E010E0F6E000E126E070E85
:1012B400116E9DEC10F08F0E0F6E060E106EBFECCB
:1012C4000FF0FF0E116E030E126E000E136E000E61
:1012D400146E46C001F047C002F048C003F049C094
:1012E40004F0C80E056E000E066E000E076E000EAA
:1012F400086ED4EC0EF001C00DF002C00EF003C075
:101304000FF004C010F07AEC0DF0140E0D24276ECB
:10131400000E0E20286E000E0F20296E000E1020E5
:101324002A6E640E116E000E126E000E136E000E05
:10133400146E27C00DF028C00EF029C00FF02AC08B
:1013440010F07AEC0DF00DC01AF00EC01BF00FC0B7
:101354001CF010C01DF00A0E1E6E000E1F6E000E53
:10136400206E000E216E1AEC0EF01A50300F64EC51
:1013740011F0FF0E116E030E126E000E136E000EAE
:10138400146E46C001F047C002F048C003F049C0E3
:1013940004F0C80E056E000E066E000E076E000EF9
:1013A400086ED4EC0EF001C00DF002C00EF003C0C4
:1013B4000FF004C010F07AEC0DF0140E0D24276E1B
:1013C400000E0E20286E000E0F20296E000E102035
:1013D4002A6E0A0E116E000E126E000E136E000EAF
:1013E400146E27C00DF028C00EF029C00FF02AC0DB
:1013F40010F07AEC0DF00DC01AF00EC01BF00FC007
:101404001CF010C01DF00A0E1E6E000E1F6E000EA2
:10141400206E000E216E1AEC0EF01A50300F64ECA0
:1014240011F0FF0E116E030E126E000E136E000EFD
:10143400146E46C001F047C002F048C003F049C032
:1014440004F0C80E056E000E066E000E076E000E48
:10145400086ED4EC0EF001C00DF002C00EF003C013
:101464000FF004C010F07AEC0DF0140E0D241A6E77
:10147400000E0E201B6E000E0F201C6E000E10209E
:101484001D6E0A0E1E6E000E1F6E000E206E000EE4
:10149400216E1AEC0EF01A50300F64EC11F01200A9
:1014A400000E026E180E016E000E046E000E036E26
:1014B400E4EC06F0000E026E190E016E000E046ECE
:1014C400000E036EE4EC06F0000E026E1A0E016EBE
:1014D400000E046E000E036EE4EC06F0000E026EC5
:1014E4001B0E016E000E046E000E036EE4EC06F09B
:1014F400000E086E000E076E12EC10F0EAEF0AF010
:10150400010E4224F66EF76A060EF7220800F55023
:10151400076E086A12EC10F0000E026E180E016ECF
:10152400000E046E010E036EE4EC06F0010E436E31
:1015340007EF0BF0010E4124F66EF76A060EF72250
:101544000800F550076E086A12EC10F0000E026EE7
:10155400190E016E000E046E010E036EE4EC06F02B
:10156400020E436E07EF0BF0010E4024F66EF76A8D
:10157400060EF7220800F550076E086A12EC10F008
:10158400000E026E1A0E016E000E046E010E036E42
:10159400E4EC06F0030E436E07EF0BF0010E3F245C
:1015A400F66EF76A060EF7220800F550076E086A11
:1015B40012EC10F0000E026E1B0E016E000E046E93
:1015C400010E036EE4EC06F0000E436E07EF0BF021
:1015D40043500A6E0B6A0B50000AD8B4F4EF0AF0B9
:1015E400E6EF0AF00A50000AD8B482EF0AF0010AC2
:1015F400D8B49CEF0AF0030AD8B4B6EF0AF0010A93
:10160400D8B4D0EF0AF0E6EF0AF0120002BE16EFEB
:101614000BF0025007E1080E015CD8B014EF0BF098
:1016240016EF0BF02AEF0BF001C003F0010E046E6D
:10163400032A1FEF0BF0D8900436032E1DEF0BF096
:1016440004508014056E0550016E026ABCEF0BF065
:1016540002BE38EF0BF0025007E1100E015CD8B067
:1016640036EF0BF038EF0BF04EEF0BF001C003F048
:10167400F80E0326010E046E032A43EF0BF0D890F4
:101684000436032E41EF0BF004508114056E05500F
:10169400016E026ABCEF0BF002BE5CEF0BF002506D
:1016A40007E1180E015CD8B05AEF0BF05CEF0BF0B9
:1016B40072EF0BF001C003F0F00E0326010E046E6E
:1016C400032A67EF0BF0D8900436032E65EF0BF076
:1016D40004508214056E0550016E026ABCEF0BF0D3
:1016E40002BE80EF0BF0025007E1200E015CD8B07F
:1016F4007EEF0BF080EF0BF096EF0BF001C003F0E0
:10170400E80E0326010E046E032A8BEF0BF0D8902B
:101714000436032E89EF0BF004508314056E055034
:10172400016E026ABCEF0BF002BEA4EF0BF0025094
:1017340007E1280E015CD8B0A2EF0BF0A4EF0BF088
:10174400BAEF0BF001C003F0E00E0326010E046EA5
:10175400032AAFEF0BF0D8900436032EADEF0BF055
:1017640004508414056E0550016E026ABCEF0BF040
:10177400016802681200000E3B6E000E3A6E000E05
:101784000E6E000E0D6E0EBED1EF0BF00E5009E181
:10179400050E0D5CD8A0D1EF0BF0D3EF0BF0D5EF15
:1017A4000BF036EF0CF00DC00AF0030E0A26010E02
:1017B4000B6E000E0C6E0A2AE3EF0BF0D8900B367A
:1017C4000C360A2EE0EF0BF00BC007F00CC008F04B
:1017D40012EC10F0000E026E0A0E016E08EC0BF013
:1017E40001500210D8B4F9EF0BF0FBEF0BF00EEF41
:1017F4000CF00DC00AF0010E0B6E000E0C6E0A2ADE
:1018040007EF0CF0D8900B360C360A2E04EF0CF0D0
:101814000B503A120C503B12000E026E090E016E70
:1018240008EC0BF001500210D8B41BEF0CF01DEFC4
:101834000CF032EF0CF00DC00AF0050E0A26010E72
:101844000B6E000E0C6E0A2A2BEF0CF0D8900B36A0
:101854000C360A2E28EF0CF00B503A120C503B12A7
:101864000D4A0E2AC5EF0BF03A50381807E13B50E9
:101874003918D8A440EF0CF042EF0CF045EF0CF00F
:1018840044064BEF0CF0010E446E3AC038F03BC0F6
:1018940039F04450D8A451EF0CF053EF0CF057EF4B
:1018A4000CF038C03CF039C03DF01200030E046E59
:1018B400E80E036E36C001F037C002F09AEC0EF069
:1018C40001C008F002C009F0000E0B6E0A0E0A6E89
:1018D40009EC0FF008C00DF009C00EF0000E046E04
:1018E400640E036E36C001F037C002F09AEC0EF0BD
:1018F40001C008F002C009F0000E0B6E0A0E0A6E59
:1019040009EC0FF008C00FF009C010F0000E046ECF
:101914000A0E036E36C001F037C002F09AEC0EF0E6
:1019240001C008F002C009F0000E0B6E0A0E0A6E28
:1019340009EC0FF008C011F009C012F036C008F02D
:1019440037C009F0000E0B6E0A0E0A6E09EC0FF098
:1019540008C013F009C014F0000E016E0D5068ECBD
:101964000FF0010E016E0F5068EC0FF0020E016EC5
:10197400115068EC0FF0030E016E135068EC0FF079
:10198400120020EC0DF0BAEC10F094EC0FF0B2EC75
:1019940011F082EC11F039EC10F04C0E0F6E060EC3
:1019A400106EBFEC0FF0170E026E700E016E53EC4A
:1019B40011F0FDEF0CF096EC05F052EC0AF0010E7C
:1019C4002D6E1AEF0DF04AEC03F0020E2D6E1AEF95
:1019D4000DF032EC09F0030E2D6E1AEF0DF0CCEC85
:1019E4000DF052EC0AF0040E2D6E1AEF0DF0000EFD
:1019F4002D6E1AEF0DF02D502B6E2C6A2C50000A10
:101A0400D8B407EF0DF0F9EF0CF02B50000AD8B45E
:101A1400DDEF0CF0010AD8B4E5EF0CF0030AD8B4FA
:101A2400EBEF0CF0010AD8B4F1EF0CF0F9EF0CF085
:101A3400A5EC11F0D5EF0CF000EF00F0000E026EF3
:101A44001C0E016E000E046E000E036E0BEC08F00B
:101A5400000E026E1D0E016E000E046E000E036E6B
:101A64000BEC08F07EEC10F0000E026E0F0E016E0F
:101A7400D3EC10F0000E0B6E000E0A6E030E40EC59
:101A840011F0000E026E050E016ED3EC10F0000E84
:101A94000B6E000E0A6E030E40EC11F0000E026E87
:101AA400A00E016EB6EC11F0000E0B6E000E0A6E65
:101AB400030E40EC11F0000E026EA00E016EB6ECA7
:101AC40011F0000E0B6E000E0A6E020E40EC11F0C7
:101AD400000E026E0A0E016ED3EC10F0280E73ECA9
:101AE40011F00C0E73EC11F0010E73EC11F01200F6
:101AF400000E156E000E166E000E176E000E186E98
:101B04001150121013101410D8B48BEF0DF08DEF88
:101B14000DF0C3EF0DF0010E196E97EF0DF0D89094
:101B24001136123613361436192A14AE9CEF0DF002
:101B34009EEF0DF091EF0DF0D8901536163617364E
:101B4400183611500D5C12500E5813500F58145083
:101B54001058D8A0B0EF0DF0B2EF0DF0BBEF0DF0C0
:101B640011500D5E12500E5A13500F5A1450105A41
:101B74001580D8901432133212321132192E9EEF7E
:101B84000DF015C00DF016C00EF017C00FF018C000
:101B940010F0120046C001F047C002F048C003F044
:101BA40049C004F0C80E056E000E066E000E076EE6
:101BB400000E086ED4EC0EF00B0EE6EF0DF0D8908C
:101BC4000432033202320132E82EE1EF0DF0140E3A
:101BD40001242E6E000E02202F6E000E0320306EA4
:101BE400000E0420316E2E50325C2F50335830508A
:101BF400345831503558D8B002EF0EF004EF0EF0DF
:101C040008EF0EF058EC0CF019EF0EF032502E5C89
:101C140033502F583450305835503158D8B015EF10
:101C24000EF017EF0EF019EF0EF02BEC11F012007E
:101C34001E501F1020102110D8B423EF0EF025EFF2
:101C44000EF055EF0EF0010E226E2FEF0EF0D8902D
:101C54001E361F3620362136222A21AE34EF0EF0EE
:101C640036EF0EF029EF0EF01E501A5C1F501B5871
:101C740020501C5821501D58D8A043EF0EF045EFBA
:101C84000EF04DEF0EF01E501A5E1F501B5A2050DE
:101C94001C5A21501D5AD890213220321F321E3234
:101CA400222E36EF0EF01AC01AF01BC01BF01CC017
:101CB4001CF01DC01DF01200000E056E000E046E17
:101CC40004C001F0010E026E000E036E012A6EEFD5
:101CD4000EF0D89002360336012E6BEF0EF03C5016
:101CE40002163D50031602500310D8B47CEF0EF0D8
:101CF4007EEF0EF088EF0EF0120E0424F66E060E40
:101D04000520F76E0800F55099EF0EF0044A052AF5
:101D140005BE96EF0EF0055009E10A0E045CD8A04A
:101D240096EF0EF098EF0EF062EF0EF0000E120038
:101D3400000E066E000E056E03500410D8B4A5EF15
:101D44000EF0A7EF0EF0CFEF0EF0010E076EAFEF1F
:101D54000EF0D89003360436072A04AEB4EF0EF022
:101D6400B6EF0EF0ABEF0EF0D89005360636035002
:101D7400015C04500258D8A0C2EF0EF0C4EF0EF07C
:101D8400C9EF0EF00350015E0450025A0580D8904A
:101D940004320332072EB6EF0EF005C001F006C080
:101DA40002F01200000E096E000E0A6E000E0B6E99
:101DB400000E0C6E01A0E1EF0EF0E3EF0EF0EBEF7E
:101DC4000EF00550092606500A2207500B2208502F
:101DD4000C22D8900536063607360836D8900432D9
:101DE4000332023201320150021003100410D8A44D
:101DF400FEEF0EF000EF0FF0DCEF0EF009C001F083
:101E04000AC002F00BC003F00CC004F012000A5028
:101E14000B10D8B410EF0FF012EF0FF036EF0FF0F5
:101E2400010E0C6E1AEF0FF0D8900A360B360C2AFE
:101E34000BAE1FEF0FF021EF0FF016EF0FF00A506B
:101E4400085C0B500958D8A02AEF0FF02CEF0FF0C4
:101E540030EF0FF00A50085E0B50095AD8900B323D
:101E64000A320C2E21EF0FF008C008F009C009F067
:101E740012000D6E0DC00CF00C3A0F0E0C160C5027
:101E8400076E086A12EC10F0000E026E1D0E016E51
:101E94000AC003F00BC004F0E4EC06F05DEC10F0B3
:101EA4000DC00CF00F0E0C160C50076E086A12ECE5
:101EB40010F0000E026E1D0E016E0AC003F00BC07E
:101EC40004F0E4EC06F05DEC10F01200026E015038
:101ED400D8A46FEF0FF071EF0FF073EF0FF002C0A3
:101EE40042F00104D8A479EF0FF07BEF0FF07DEFFF
:101EF4000FF002C041F0020E0118D8A484EF0FF0D5
:101F040086EF0FF088EF0FF002C040F0030E0118C7
:101F1400D8A48FEF0FF091EF0FF093EF0FF002C002
:101F24003FF01200000E026E180E016E000E046ED9
:101F3400000E036E0BEC08F0000E026E190E016E1B
:101F4400000E046E000E036E0BEC08F0000E026E21
:101F54001A0E016E000E046E000E036E0BEC08F0F8
:101F6400000E026E1B0E016E000E046E000E036E58
:101F74000BEC08F07EEC10F01200000E146E000E54
:101F8400136ED5EF0FF013500F24116E1450102060
:101F9400126E11C0F6FF12C0F7FF0800F55064EC92
:101FA40011F0134A142A13500F24116E14501020E8
:101FB400126E11C0F6FF12C0F7FF0800F5500009B9
:101FC400D8A4E7EF0FF0E9EF0FF0C5EF0FF0120020
:101FD400C30EC216025007E1030E015CD8B0F5EF40
:101FE4000FF0F7EF0FF0FBEF0FF00144E846FC0BA6
:101FF400C212C282C2B201EF10F003EF10F0FCEF84
:102004000FF0C4CF03F0046A0350046E036AC35094
:102014000326000E042203C001F004C002F01200E3
:10202400000E026E080E016E000E046E000E036EAA
:10203400E4EC06F0000E096E000E026E1E0E016E38
:10204400800E0714036E046AE4EC06F016EC11F03B
:10205400D89007360836092A070E096434EF10F0C1
:1020640036EF10F01EEF10F001EC11F01200000E2C
:10207400026E000E016E000E046E010E036E0BEC78
:1020840008F0000E026E010E016E000E046E010EC9
:10209400036E0BEC08F0000E026E020E016E000ED1
:1020A400046E010E036E0BEC08F0C2800C0EC16EC0
:1020B400AA0EC06E1200000E026E1C0E016E000EFF
:1020C400046E010E036EE4EC06F0000E026E050EC3
:1020D400016EB6EC11F0000E026E1C0E016E000EC5
:1020E400046E000E036EE4EC06F0000E026E050EA4
:1020F400016EB6EC11F01200000E026E1F0E016E9E
:10210400000E046E000E036E0BEC08F0000E026E5F
:10211400080E016E000E046E000E036E0BEC08F048
:10212400000E026E1E0E016E000E046E000E036E93
:102134000BEC08F012000F501010D8A4A4EF10F00C
:10214400A6EF10F0ABEF10F011500F0B800F73ECF3
:1021540011F00F041010D8A4B2EF10F0B4EF10F087
:10216400B9EF10F011500F0BC00F73EC11F0120007
:102174007EEC10F0000E026E0A0E016E000E046E6C
:10218400010E036E0BEC08F0000E026E090E016ED8
:10219400000E046E010E036E0BEC08F00C0EC16E03
:1021A4001200000E056E000E046EDBEF10F0044A00
:1021B400052A0150045C0550800A036E0250800A0F
:1021C4000358D8A0E8EF10F0EAEF10F0D9EF10F0C0
:1021D4001200000E016EABA2F2EF10F0F4EF10F05B
:1021E400F6EF10F0AB98AB889EAAFBEF10F0FDEF72
:1021F40010F0FFEF10F0AECF01F001501200000E0E
:10220400026E1F0E016E000E046E010E036EE4ECEE
:1022140006F0000E026E1F0E016E000E046E000E1C
:10222400036EE4EC06F01200000E026E080E016E5E
:10223400000E046E010E036EE4EC06F0000E026E56
:10224400080E016E000E046E000E036EE4EC06F040
:102254001200000E016E000E68EC0FF0010E016E0C
:10226400000E68EC0FF0020E016E000E68EC0FF029
:10227400030E016E000E68EC0FF012000C6E0CC021
:1022840007F0086A12EC10F0000E026E1D0E016ECB
:102294000AC003F00BC004F0E4EC06F05DEC10F0AF
:1022A4001200D8900134036E0234046E031E041E1F
:1022B400320E035E000E045A0450D76E03C0D6FFDC
:1022C400F29412000E6E000E0B6E010E0A6E0E508A
:1022D4003BEC0FF0000E026E500E016EB6EC11F0E6
:1022E40012000E6E000E0B6E000E0A6E0E503BECCA
:1022F4000FF0000E026E020E016ED3EC10F012000D
:102304002C0EAC6E900EAB6E080EB86E000EB06E56
:10231400220EAF6E948C948E120000EE2EF01C0EE2
:10232400EE6AE806FDE1000EF86E0001C3EF0CF062
:10233400016E9EA8A0EF11F0A2EF11F09BEF11F037
:1023440001C0ADFF1200F2A4AAEF11F0ACEF11F03E
:10235400A5EF11F012003CC001F03DC002F01200E4
:0A236400080ED56ED58E120012008F
:020000040020DA
:08000000FFFFFFFFFFFFFFFF00
:020000040030CA
:0E000000FF027100FF8380FF0FC00FE00F4072
:00000001FF
